{
  "_format": "hh-sol-artifact-1",
  "contractName": "WordHustler",
  "sourceName": "contracts/WordHustler.sol",
  "abi": [
    {
      "inputs": [],
      "stateMutability": "nonpayable",
      "type": "constructor"
    },
    {
      "anonymous": false,
      "inputs": [
        {
          "indexed": true,
          "internalType": "address",
          "name": "owner",
          "type": "address"
        },
        {
          "indexed": true,
          "internalType": "address",
          "name": "approved",
          "type": "address"
        },
        {
          "indexed": true,
          "internalType": "uint256",
          "name": "tokenId",
          "type": "uint256"
        }
      ],
      "name": "Approval",
      "type": "event"
    },
    {
      "anonymous": false,
      "inputs": [
        {
          "indexed": true,
          "internalType": "address",
          "name": "owner",
          "type": "address"
        },
        {
          "indexed": true,
          "internalType": "address",
          "name": "operator",
          "type": "address"
        },
        {
          "indexed": false,
          "internalType": "bool",
          "name": "approved",
          "type": "bool"
        }
      ],
      "name": "ApprovalForAll",
      "type": "event"
    },
    {
      "anonymous": false,
      "inputs": [
        {
          "indexed": true,
          "internalType": "address",
          "name": "from",
          "type": "address"
        },
        {
          "indexed": true,
          "internalType": "address",
          "name": "to",
          "type": "address"
        },
        {
          "indexed": true,
          "internalType": "uint256",
          "name": "tokenId",
          "type": "uint256"
        }
      ],
      "name": "Transfer",
      "type": "event"
    },
    {
      "anonymous": false,
      "inputs": [
        {
          "indexed": false,
          "internalType": "address",
          "name": "sender",
          "type": "address"
        },
        {
          "indexed": false,
          "internalType": "uint256",
          "name": "tokenId",
          "type": "uint256"
        }
      ],
      "name": "nftMinted",
      "type": "event"
    },
    {
      "inputs": [
        {
          "internalType": "address",
          "name": "to",
          "type": "address"
        },
        {
          "internalType": "uint256",
          "name": "tokenId",
          "type": "uint256"
        }
      ],
      "name": "approve",
      "outputs": [],
      "stateMutability": "nonpayable",
      "type": "function"
    },
    {
      "inputs": [
        {
          "internalType": "address",
          "name": "owner",
          "type": "address"
        }
      ],
      "name": "balanceOf",
      "outputs": [
        {
          "internalType": "uint256",
          "name": "",
          "type": "uint256"
        }
      ],
      "stateMutability": "view",
      "type": "function"
    },
    {
      "inputs": [
        {
          "internalType": "uint256",
          "name": "tokenId",
          "type": "uint256"
        }
      ],
      "name": "getApproved",
      "outputs": [
        {
          "internalType": "address",
          "name": "",
          "type": "address"
        }
      ],
      "stateMutability": "view",
      "type": "function"
    },
    {
      "inputs": [
        {
          "internalType": "address",
          "name": "owner",
          "type": "address"
        },
        {
          "internalType": "address",
          "name": "operator",
          "type": "address"
        }
      ],
      "name": "isApprovedForAll",
      "outputs": [
        {
          "internalType": "bool",
          "name": "",
          "type": "bool"
        }
      ],
      "stateMutability": "view",
      "type": "function"
    },
    {
      "inputs": [],
      "name": "mintNFT",
      "outputs": [],
      "stateMutability": "nonpayable",
      "type": "function"
    },
    {
      "inputs": [],
      "name": "name",
      "outputs": [
        {
          "internalType": "string",
          "name": "",
          "type": "string"
        }
      ],
      "stateMutability": "view",
      "type": "function"
    },
    {
      "inputs": [
        {
          "internalType": "uint256",
          "name": "tokenId",
          "type": "uint256"
        }
      ],
      "name": "ownerOf",
      "outputs": [
        {
          "internalType": "address",
          "name": "",
          "type": "address"
        }
      ],
      "stateMutability": "view",
      "type": "function"
    },
    {
      "inputs": [
        {
          "internalType": "uint256",
          "name": "_tokenId",
          "type": "uint256"
        }
      ],
      "name": "pickRandomFirstWord",
      "outputs": [
        {
          "internalType": "string",
          "name": "",
          "type": "string"
        }
      ],
      "stateMutability": "view",
      "type": "function"
    },
    {
      "inputs": [
        {
          "internalType": "uint256",
          "name": "_tokenId",
          "type": "uint256"
        }
      ],
      "name": "pickRandomSecondWord",
      "outputs": [
        {
          "internalType": "string",
          "name": "",
          "type": "string"
        }
      ],
      "stateMutability": "view",
      "type": "function"
    },
    {
      "inputs": [
        {
          "internalType": "uint256",
          "name": "_tokenId",
          "type": "uint256"
        }
      ],
      "name": "pickRandomThirdWord",
      "outputs": [
        {
          "internalType": "string",
          "name": "",
          "type": "string"
        }
      ],
      "stateMutability": "view",
      "type": "function"
    },
    {
      "inputs": [
        {
          "internalType": "address",
          "name": "from",
          "type": "address"
        },
        {
          "internalType": "address",
          "name": "to",
          "type": "address"
        },
        {
          "internalType": "uint256",
          "name": "tokenId",
          "type": "uint256"
        }
      ],
      "name": "safeTransferFrom",
      "outputs": [],
      "stateMutability": "nonpayable",
      "type": "function"
    },
    {
      "inputs": [
        {
          "internalType": "address",
          "name": "from",
          "type": "address"
        },
        {
          "internalType": "address",
          "name": "to",
          "type": "address"
        },
        {
          "internalType": "uint256",
          "name": "tokenId",
          "type": "uint256"
        },
        {
          "internalType": "bytes",
          "name": "_data",
          "type": "bytes"
        }
      ],
      "name": "safeTransferFrom",
      "outputs": [],
      "stateMutability": "nonpayable",
      "type": "function"
    },
    {
      "inputs": [
        {
          "internalType": "address",
          "name": "operator",
          "type": "address"
        },
        {
          "internalType": "bool",
          "name": "approved",
          "type": "bool"
        }
      ],
      "name": "setApprovalForAll",
      "outputs": [],
      "stateMutability": "nonpayable",
      "type": "function"
    },
    {
      "inputs": [
        {
          "internalType": "bytes4",
          "name": "interfaceId",
          "type": "bytes4"
        }
      ],
      "name": "supportsInterface",
      "outputs": [
        {
          "internalType": "bool",
          "name": "",
          "type": "bool"
        }
      ],
      "stateMutability": "view",
      "type": "function"
    },
    {
      "inputs": [],
      "name": "symbol",
      "outputs": [
        {
          "internalType": "string",
          "name": "",
          "type": "string"
        }
      ],
      "stateMutability": "view",
      "type": "function"
    },
    {
      "inputs": [
        {
          "internalType": "uint256",
          "name": "tokenId",
          "type": "uint256"
        }
      ],
      "name": "tokenURI",
      "outputs": [
        {
          "internalType": "string",
          "name": "",
          "type": "string"
        }
      ],
      "stateMutability": "view",
      "type": "function"
    },
    {
      "inputs": [
        {
          "internalType": "address",
          "name": "from",
          "type": "address"
        },
        {
          "internalType": "address",
          "name": "to",
          "type": "address"
        },
        {
          "internalType": "uint256",
          "name": "tokenId",
          "type": "uint256"
        }
      ],
      "name": "transferFrom",
      "outputs": [],
      "stateMutability": "nonpayable",
      "type": "function"
    }
  ],
  "bytecode": "0x60806040526040518061016001604052806101338152602001620047cb61013391396008908051906020019062000038929190620008db565b506040518060400160405280600d81526020017f3c2f746578743e3c2f7376673e000000000000000000000000000000000000008152506009908051906020019062000086929190620008db565b506040518061014001604052806040518060400160405280600881526020017f506f77657266756c00000000000000000000000000000000000000000000000081525081526020016040518060400160405280600981526020017f44656d656e7469616c000000000000000000000000000000000000000000000081525081526020016040518060400160405280600b81526020017f416c676f726974686d696300000000000000000000000000000000000000000081525081526020016040518060200160405280600081525081526020016040518060400160405280600981526020017f496e74726f76657274000000000000000000000000000000000000000000000081525081526020016040518060400160405280600a81526020017f4972726174696f6e616c0000000000000000000000000000000000000000000081525081526020016040518060400160405280600481526020017f4c6f636f0000000000000000000000000000000000000000000000000000000081525081526020016040518060400160405280600781526020017f506572666563740000000000000000000000000000000000000000000000000081525081526020016040518060400160405280600481526020017f427573790000000000000000000000000000000000000000000000000000000081525081526020016040518060400160405280600881526020017f43617574696f7573000000000000000000000000000000000000000000000000815250815250600a90600a620002cb9291906200096c565b506040518061012001604052806040518060400160405280600681526020017f536173756b65000000000000000000000000000000000000000000000000000081525081526020016040518060400160405280600681526020017f53656e706169000000000000000000000000000000000000000000000000000081525081526020016040518060400160405280600781526020017f50696b616368750000000000000000000000000000000000000000000000000081525081526020016040518060400160405280600681526020017f4261746d616e000000000000000000000000000000000000000000000000000081525081526020016040518060400160405280600481526020017f456c6f6e0000000000000000000000000000000000000000000000000000000081525081526020016040518060400160405280600881526020017f45696e737465696e00000000000000000000000000000000000000000000000081525081526020016040518060400160405280600481526020017f43656c6c0000000000000000000000000000000000000000000000000000000081525081526020016040518060400160405280600781526020017f546561636865720000000000000000000000000000000000000000000000000081525081526020016040518060400160405280600c81526020017f517531636b5363307045725a0000000000000000000000000000000000000000815250815250600b906009620004fb929190620009d3565b506040518061012001604052806040518060400160405280600481526020017f393030300000000000000000000000000000000000000000000000000000000081525081526020016040518060400160405280600381526020017f343230000000000000000000000000000000000000000000000000000000000081525081526020016040518060400160405280600281526020017f363900000000000000000000000000000000000000000000000000000000000081525081526020016040518060400160405280600381526020017f363636000000000000000000000000000000000000000000000000000000000081525081526020016040518060400160405280600481526020017f5f305f300000000000000000000000000000000000000000000000000000000081525081526020016040518060400160405280600481526020017f313233340000000000000000000000000000000000000000000000000000000081525081526020016040518060400160405280600481526020017f393039300000000000000000000000000000000000000000000000000000000081525081526020016040518060400160405280600281526020017f323500000000000000000000000000000000000000000000000000000000000081525081526020016040518060400160405280600581526020017f3c2d5f2d3e000000000000000000000000000000000000000000000000000000815250815250600c9060096200072b929190620009d3565b503480156200073957600080fd5b506040518060400160405280600b81526020017f576f7264487573746c65720000000000000000000000000000000000000000008152506040518060400160405280600781526020017f57487573746c65000000000000000000000000000000000000000000000000008152508160009080519060200190620007be929190620008db565b508060019080519060200190620007d7929190620008db565b50505062000809604051806060016040528060268152602001620047a5602691396200080f60201b620012b11760201c565b62000bf4565b620008af8160405160240162000826919062000b08565b6040516020818303038152906040527f41304fac000000000000000000000000000000000000000000000000000000007bffffffffffffffffffffffffffffffffffffffffffffffffffffffff19166020820180517bffffffffffffffffffffffffffffffffffffffffffffffffffffffff8381831617835250505050620008b260201b60201c565b50565b60008151905060006a636f6e736f6c652e6c6f679050602083016000808483855afa5050505050565b828054620008e99062000b7e565b90600052602060002090601f0160209004810192826200090d576000855562000959565b82601f106200092857805160ff191683800117855562000959565b8280016001018555821562000959579182015b82811115620009585782518255916020019190600101906200093b565b5b50905062000968919062000a3a565b5090565b828054828255906000526020600020908101928215620009c0579160200282015b82811115620009bf578251829080519060200190620009ae929190620008db565b50916020019190600101906200098d565b5b509050620009cf919062000a59565b5090565b82805482825590600052602060002090810192821562000a27579160200282015b8281111562000a2657825182908051906020019062000a15929190620008db565b5091602001919060010190620009f4565b5b50905062000a36919062000a59565b5090565b5b8082111562000a5557600081600090555060010162000a3b565b5090565b5b8082111562000a7d576000818162000a73919062000a81565b5060010162000a5a565b5090565b50805462000a8f9062000b7e565b6000825580601f1062000aa3575062000ac4565b601f01602090049060005260206000209081019062000ac3919062000a3a565b5b50565b600062000ad48262000b2c565b62000ae0818562000b37565b935062000af281856020860162000b48565b62000afd8162000be3565b840191505092915050565b6000602082019050818103600083015262000b24818462000ac7565b905092915050565b600081519050919050565b600082825260208201905092915050565b60005b8381101562000b6857808201518184015260208101905062000b4b565b8381111562000b78576000848401525b50505050565b6000600282049050600182168062000b9757607f821691505b6020821081141562000bae5762000bad62000bb4565b5b50919050565b7f4e487b7100000000000000000000000000000000000000000000000000000000600052602260045260246000fd5b6000601f19601f8301169050919050565b613ba18062000c046000396000f3fe608060405234801561001057600080fd5b506004361061010b5760003560e01c80636352211e116100a2578063b187301f11610071578063b187301f146102b6578063b88d4fde146102e6578063c575757a14610302578063c87b56dd14610332578063e985e9c5146103625761010b565b80636352211e1461021c57806370a082311461024c57806395d89b411461027c578063a22cb4651461029a5761010b565b806314f710fe116100de57806314f710fe146101aa57806323b872dd146101b45780632de38d68146101d057806342842e0e146102005761010b565b806301ffc9a71461011057806306fdde0314610140578063081812fc1461015e578063095ea7b31461018e575b600080fd5b61012a600480360381019061012591906125e3565b610392565b6040516101379190612d07565b60405180910390f35b610148610474565b6040516101559190612d22565b60405180910390f35b61017860048036038101906101739190612635565b610506565b6040516101859190612c77565b60405180910390f35b6101a860048036038101906101a391906125a7565b61058b565b005b6101b26106a3565b005b6101ce60048036038101906101c991906124a1565b610912565b005b6101ea60048036038101906101e59190612635565b610972565b6040516101f79190612d22565b60405180910390f35b61021a600480360381019061021591906124a1565b610a90565b005b61023660048036038101906102319190612635565b610ab0565b6040516102439190612c77565b60405180910390f35b6102666004803603810190610261919061243c565b610b62565b6040516102739190612fce565b60405180910390f35b610284610c1a565b6040516102919190612d22565b60405180910390f35b6102b460048036038101906102af919061256b565b610cac565b005b6102d060048036038101906102cb9190612635565b610e2d565b6040516102dd9190612d22565b60405180910390f35b61030060048036038101906102fb91906124f0565b610f4b565b005b61031c60048036038101906103179190612635565b610fad565b6040516103299190612d22565b60405180910390f35b61034c60048036038101906103479190612635565b6110cb565b6040516103599190612d22565b60405180910390f35b61037c60048036038101906103779190612465565b61121d565b6040516103899190612d07565b60405180910390f35b60007f80ac58cd000000000000000000000000000000000000000000000000000000007bffffffffffffffffffffffffffffffffffffffffffffffffffffffff1916827bffffffffffffffffffffffffffffffffffffffffffffffffffffffff1916148061045d57507f5b5e139f000000000000000000000000000000000000000000000000000000007bffffffffffffffffffffffffffffffffffffffffffffffffffffffff1916827bffffffffffffffffffffffffffffffffffffffffffffffffffffffff1916145b8061046d575061046c8261134a565b5b9050919050565b60606000805461048390613262565b80601f01602080910402602001604051908101604052809291908181526020018280546104af90613262565b80156104fc5780601f106104d1576101008083540402835291602001916104fc565b820191906000526020600020905b8154815290600101906020018083116104df57829003601f168201915b5050505050905090565b6000610511826113b4565b610550576040517f08c379a000000000000000000000000000000000000000000000000000000000815260040161054790612f2e565b60405180910390fd5b6004600083815260200190815260200160002060009054906101000a900473ffffffffffffffffffffffffffffffffffffffff169050919050565b600061059682610ab0565b90508073ffffffffffffffffffffffffffffffffffffffff168373ffffffffffffffffffffffffffffffffffffffff161415610607576040517f08c379a00000000000000000000000000000000000000000000000000000000081526004016105fe90612f8e565b60405180910390fd5b8073ffffffffffffffffffffffffffffffffffffffff16610626611420565b73ffffffffffffffffffffffffffffffffffffffff16148061065557506106548161064f611420565b61121d565b5b610694576040517f08c379a000000000000000000000000000000000000000000000000000000000815260040161068b90612e6e565b60405180910390fd5b61069e8383611428565b505050565b60006106af60076114e1565b905060006106bc82610972565b905060006106c983610e2d565b905060006106d684610fad565b905060008383836040516020016106ef93929190612b30565b604051602081830303815290604052905061073f6040518060400160405280600a81526020017f576f726420313a20257300000000000000000000000000000000000000000000815250856114ef565b61077e6040518060400160405280600a81526020017f576f726420323a20257300000000000000000000000000000000000000000000815250846114ef565b6107bd6040518060400160405280600a81526020017f576f726420333a20257300000000000000000000000000000000000000000000815250836114ef565b600060088585856040516020016107d79493929190612b61565b6040516020818303038152906040529050610809604051806060016040528060268152602001613aa1602691396112b1565b610812816112b1565b610833604051806060016040528060258152602001613b07602591396112b1565b6000610867836108428461158b565b604051602001610853929190612bee565b60405160208183030381529060405261158b565b905060008160405160200161087c9190612c55565b60405160208183030381529060405290506108973389611749565b6108a18882611767565b6108c5604051806060016040528060408152602001613b2c604091398933846117db565b6108cf600761187d565b7fbbedd439cfe8aa51324de58375e6ffccc4ac766d72b9aaeb8a0e4960923ea4163389604051610900929190612cde565b60405180910390a15050505050505050565b61092361091d611420565b82611893565b610962576040517f08c379a000000000000000000000000000000000000000000000000000000000815260040161095990612fae565b60405180910390fd5b61096d838383611971565b505050565b606060006109a661098284611bcd565b6040516020016109929190612c33565b604051602081830303815290604052611d7a565b9050600a80549050816109b9919061330e565b9050600a81815481106109f5577f4e487b7100000000000000000000000000000000000000000000000000000000600052603260045260246000fd5b906000526020600020018054610a0a90613262565b80601f0160208091040260200160405190810160405280929190818152602001828054610a3690613262565b8015610a835780601f10610a5857610100808354040283529160200191610a83565b820191906000526020600020905b815481529060010190602001808311610a6657829003601f168201915b5050505050915050919050565b610aab83838360405180602001604052806000815250610f4b565b505050565b6000806002600084815260200190815260200160002060009054906101000a900473ffffffffffffffffffffffffffffffffffffffff169050600073ffffffffffffffffffffffffffffffffffffffff168173ffffffffffffffffffffffffffffffffffffffff161415610b59576040517f08c379a0000000000000000000000000000000000000000000000000000000008152600401610b5090612eae565b60405180910390fd5b80915050919050565b60008073ffffffffffffffffffffffffffffffffffffffff168273ffffffffffffffffffffffffffffffffffffffff161415610bd3576040517f08c379a0000000000000000000000000000000000000000000000000000000008152600401610bca90612e8e565b60405180910390fd5b600360008373ffffffffffffffffffffffffffffffffffffffff1673ffffffffffffffffffffffffffffffffffffffff168152602001908152602001600020549050919050565b606060018054610c2990613262565b80601f0160208091040260200160405190810160405280929190818152602001828054610c5590613262565b8015610ca25780601f10610c7757610100808354040283529160200191610ca2565b820191906000526020600020905b815481529060010190602001808311610c8557829003601f168201915b5050505050905090565b610cb4611420565b73ffffffffffffffffffffffffffffffffffffffff168273ffffffffffffffffffffffffffffffffffffffff161415610d22576040517f08c379a0000000000000000000000000000000000000000000000000000000008152600401610d1990612e2e565b60405180910390fd5b8060056000610d2f611420565b73ffffffffffffffffffffffffffffffffffffffff1673ffffffffffffffffffffffffffffffffffffffff16815260200190815260200160002060008473ffffffffffffffffffffffffffffffffffffffff1673ffffffffffffffffffffffffffffffffffffffff16815260200190815260200160002060006101000a81548160ff0219169083151502179055508173ffffffffffffffffffffffffffffffffffffffff16610ddc611420565b73ffffffffffffffffffffffffffffffffffffffff167f17307eab39ab6107e8899845ad3d59bd9653f200f220920489ca2b5937696c3183604051610e219190612d07565b60405180910390a35050565b60606000610e61610e3d84611bcd565b604051602001610e4d9190612bcc565b604051602081830303815290604052611d7a565b9050600b8054905081610e74919061330e565b9050600b8181548110610eb0577f4e487b7100000000000000000000000000000000000000000000000000000000600052603260045260246000fd5b906000526020600020018054610ec590613262565b80601f0160208091040260200160405190810160405280929190818152602001828054610ef190613262565b8015610f3e5780601f10610f1357610100808354040283529160200191610f3e565b820191906000526020600020905b815481529060010190602001808311610f2157829003601f168201915b5050505050915050919050565b610f5c610f56611420565b83611893565b610f9b576040517f08c379a0000000000000000000000000000000000000000000000000000000008152600401610f9290612fae565b60405180910390fd5b610fa784848484611dad565b50505050565b60606000610fe1610fbd84611bcd565b604051602001610fcd9190612baa565b604051602081830303815290604052611d7a565b9050600c8054905081610ff4919061330e565b9050600c8181548110611030577f4e487b7100000000000000000000000000000000000000000000000000000000600052603260045260246000fd5b90600052602060002001805461104590613262565b80601f016020809104026020016040519081016040528092919081815260200182805461107190613262565b80156110be5780601f10611093576101008083540402835291602001916110be565b820191906000526020600020905b8154815290600101906020018083116110a157829003601f168201915b5050505050915050919050565b60606110d6826113b4565b611115576040517f08c379a000000000000000000000000000000000000000000000000000000000815260040161110c90612f0e565b60405180910390fd5b600060066000848152602001908152602001600020805461113590613262565b80601f016020809104026020016040519081016040528092919081815260200182805461116190613262565b80156111ae5780601f10611183576101008083540402835291602001916111ae565b820191906000526020600020905b81548152906001019060200180831161119157829003601f168201915b5050505050905060006111bf611e09565b90506000815114156111d5578192505050611218565b60008251111561120a5780826040516020016111f2929190612b0c565b60405160208183030381529060405292505050611218565b61121384611e20565b925050505b919050565b6000600560008473ffffffffffffffffffffffffffffffffffffffff1673ffffffffffffffffffffffffffffffffffffffff16815260200190815260200160002060008373ffffffffffffffffffffffffffffffffffffffff1673ffffffffffffffffffffffffffffffffffffffff16815260200190815260200160002060009054906101000a900460ff16905092915050565b611347816040516024016112c59190612d22565b6040516020818303038152906040527f41304fac000000000000000000000000000000000000000000000000000000007bffffffffffffffffffffffffffffffffffffffffffffffffffffffff19166020820180517bffffffffffffffffffffffffffffffffffffffffffffffffffffffff8381831617835250505050611ec7565b50565b60007f01ffc9a7000000000000000000000000000000000000000000000000000000007bffffffffffffffffffffffffffffffffffffffffffffffffffffffff1916827bffffffffffffffffffffffffffffffffffffffffffffffffffffffff1916149050919050565b60008073ffffffffffffffffffffffffffffffffffffffff166002600084815260200190815260200160002060009054906101000a900473ffffffffffffffffffffffffffffffffffffffff1673ffffffffffffffffffffffffffffffffffffffff1614159050919050565b600033905090565b816004600083815260200190815260200160002060006101000a81548173ffffffffffffffffffffffffffffffffffffffff021916908373ffffffffffffffffffffffffffffffffffffffff160217905550808273ffffffffffffffffffffffffffffffffffffffff1661149b83610ab0565b73ffffffffffffffffffffffffffffffffffffffff167f8c5be1e5ebec7d5bd14f71427d1e84f3dd0314c0f7b2291e5b200ac8c7c3b92560405160405180910390a45050565b600081600001549050919050565b6115878282604051602401611505929190612d44565b6040516020818303038152906040527f4b5c4277000000000000000000000000000000000000000000000000000000007bffffffffffffffffffffffffffffffffffffffffffffffffffffffff19166020820180517bffffffffffffffffffffffffffffffffffffffffffffffffffffffff8381831617835250505050611ec7565b5050565b606060008251905060008114156115b45760405180602001604052806000815250915050611744565b600060036002836115c59190613097565b6115cf91906130ed565b60046115db919061311e565b905060006020826115ec9190613097565b67ffffffffffffffff81111561162b577f4e487b7100000000000000000000000000000000000000000000000000000000600052604160045260246000fd5b6040519080825280601f01601f19166020018201604052801561165d5781602001600182028036833780820191505090505b5090506000604051806060016040528060408152602001613ac7604091399050600181016020830160005b868110156117015760038101905062ffffff818a015116603f8160121c168401518060081b905060ff603f83600c1c1686015116810190508060081b905060ff603f8360061c1686015116810190508060081b905060ff603f831686015116810190508060e01b90508084526004840193505050611688565b50600386066001811461171b576002811461172b57611736565b613d3d60f01b6002830352611736565b603d60f81b60018303525b508484525050819450505050505b919050565b611763828260405180602001604052806000815250611ef0565b5050565b611770826113b4565b6117af576040517f08c379a00000000000000000000000000000000000000000000000000000000081526004016117a690612ece565b60405180910390fd5b806006600084815260200190815260200160002090805190602001906117d69291906122c8565b505050565b611877848484846040516024016117f59493929190612d7b565b6040516020818303038152906040527f3254c2e8000000000000000000000000000000000000000000000000000000007bffffffffffffffffffffffffffffffffffffffffffffffffffffffff19166020820180517bffffffffffffffffffffffffffffffffffffffffffffffffffffffff8381831617835250505050611ec7565b50505050565b6001816000016000828254019250508190555050565b600061189e826113b4565b6118dd576040517f08c379a00000000000000000000000000000000000000000000000000000000081526004016118d490612e4e565b60405180910390fd5b60006118e883610ab0565b90508073ffffffffffffffffffffffffffffffffffffffff168473ffffffffffffffffffffffffffffffffffffffff16148061195757508373ffffffffffffffffffffffffffffffffffffffff1661193f84610506565b73ffffffffffffffffffffffffffffffffffffffff16145b806119685750611967818561121d565b5b91505092915050565b8273ffffffffffffffffffffffffffffffffffffffff1661199182610ab0565b73ffffffffffffffffffffffffffffffffffffffff16146119e7576040517f08c379a00000000000000000000000000000000000000000000000000000000081526004016119de90612f4e565b60405180910390fd5b600073ffffffffffffffffffffffffffffffffffffffff168273ffffffffffffffffffffffffffffffffffffffff161415611a57576040517f08c379a0000000000000000000000000000000000000000000000000000000008152600401611a4e90612e0e565b60405180910390fd5b611a62838383611f4b565b611a6d600082611428565b6001600360008573ffffffffffffffffffffffffffffffffffffffff1673ffffffffffffffffffffffffffffffffffffffff1681526020019081526020016000206000828254611abd9190613178565b925050819055506001600360008473ffffffffffffffffffffffffffffffffffffffff1673ffffffffffffffffffffffffffffffffffffffff1681526020019081526020016000206000828254611b149190613097565b92505081905550816002600083815260200190815260200160002060006101000a81548173ffffffffffffffffffffffffffffffffffffffff021916908373ffffffffffffffffffffffffffffffffffffffff160217905550808273ffffffffffffffffffffffffffffffffffffffff168473ffffffffffffffffffffffffffffffffffffffff167fddf252ad1be2c89b69c2b068fc378daa952ba7f163c4a11628f55a4df523b3ef60405160405180910390a4505050565b60606000821415611c15576040518060400160405280600181526020017f30000000000000000000000000000000000000000000000000000000000000008152509050611d75565b600082905060005b60008214611c47578080611c30906132c5565b915050600a82611c4091906130ed565b9150611c1d565b60008167ffffffffffffffff811115611c89577f4e487b7100000000000000000000000000000000000000000000000000000000600052604160045260246000fd5b6040519080825280601f01601f191660200182016040528015611cbb5781602001600182028036833780820191505090505b5090505b60008514611d6e57600182611cd49190613178565b9150600a85611ce3919061330e565b6030611cef9190613097565b60f81b818381518110611d2b577f4e487b7100000000000000000000000000000000000000000000000000000000600052603260045260246000fd5b60200101907effffffffffffffffffffffffffffffffffffffffffffffffffffffffffffff1916908160001a905350600a85611d6791906130ed565b9450611cbf565b8093505050505b919050565b600081604051602001611d8d9190612af5565b6040516020818303038152906040528051906020012060001c9050919050565b611db8848484611971565b611dc484848484611f50565b611e03576040517f08c379a0000000000000000000000000000000000000000000000000000000008152600401611dfa90612dce565b60405180910390fd5b50505050565b606060405180602001604052806000815250905090565b6060611e2b826113b4565b611e6a576040517f08c379a0000000000000000000000000000000000000000000000000000000008152600401611e6190612f6e565b60405180910390fd5b6000611e74611e09565b90506000815111611e945760405180602001604052806000815250611ebf565b80611e9e84611bcd565b604051602001611eaf929190612b0c565b6040516020818303038152906040525b915050919050565b60008151905060006a636f6e736f6c652e6c6f679050602083016000808483855afa5050505050565b611efa83836120e7565b611f076000848484611f50565b611f46576040517f08c379a0000000000000000000000000000000000000000000000000000000008152600401611f3d90612dce565b60405180910390fd5b505050565b505050565b6000611f718473ffffffffffffffffffffffffffffffffffffffff166122b5565b156120da578373ffffffffffffffffffffffffffffffffffffffff1663150b7a02611f9a611420565b8786866040518563ffffffff1660e01b8152600401611fbc9493929190612c92565b602060405180830381600087803b158015611fd657600080fd5b505af192505050801561200757506040513d601f19601f82011682018060405250810190612004919061260c565b60015b61208a573d8060008114612037576040519150601f19603f3d011682016040523d82523d6000602084013e61203c565b606091505b50600081511415612082576040517f08c379a000000000000000000000000000000000000000000000000000000000815260040161207990612dce565b60405180910390fd5b805181602001fd5b63150b7a0260e01b7bffffffffffffffffffffffffffffffffffffffffffffffffffffffff1916817bffffffffffffffffffffffffffffffffffffffffffffffffffffffff1916149150506120df565b600190505b949350505050565b600073ffffffffffffffffffffffffffffffffffffffff168273ffffffffffffffffffffffffffffffffffffffff161415612157576040517f08c379a000000000000000000000000000000000000000000000000000000000815260040161214e90612eee565b60405180910390fd5b612160816113b4565b156121a0576040517f08c379a000000000000000000000000000000000000000000000000000000000815260040161219790612dee565b60405180910390fd5b6121ac60008383611f4b565b6001600360008473ffffffffffffffffffffffffffffffffffffffff1673ffffffffffffffffffffffffffffffffffffffff16815260200190815260200160002060008282546121fc9190613097565b92505081905550816002600083815260200190815260200160002060006101000a81548173ffffffffffffffffffffffffffffffffffffffff021916908373ffffffffffffffffffffffffffffffffffffffff160217905550808273ffffffffffffffffffffffffffffffffffffffff16600073ffffffffffffffffffffffffffffffffffffffff167fddf252ad1be2c89b69c2b068fc378daa952ba7f163c4a11628f55a4df523b3ef60405160405180910390a45050565b600080823b905060008111915050919050565b8280546122d490613262565b90600052602060002090601f0160209004810192826122f6576000855561233d565b82601f1061230f57805160ff191683800117855561233d565b8280016001018555821561233d579182015b8281111561233c578251825591602001919060010190612321565b5b50905061234a919061234e565b5090565b5b8082111561236757600081600090555060010161234f565b5090565b600061237e6123798461300e565b612fe9565b90508281526020810184848401111561239657600080fd5b6123a1848285613220565b509392505050565b6000813590506123b881613a44565b92915050565b6000813590506123cd81613a5b565b92915050565b6000813590506123e281613a72565b92915050565b6000815190506123f781613a72565b92915050565b600082601f83011261240e57600080fd5b813561241e84826020860161236b565b91505092915050565b60008135905061243681613a89565b92915050565b60006020828403121561244e57600080fd5b600061245c848285016123a9565b91505092915050565b6000806040838503121561247857600080fd5b6000612486858286016123a9565b9250506020612497858286016123a9565b9150509250929050565b6000806000606084860312156124b657600080fd5b60006124c4868287016123a9565b93505060206124d5868287016123a9565b92505060406124e686828701612427565b9150509250925092565b6000806000806080858703121561250657600080fd5b6000612514878288016123a9565b9450506020612525878288016123a9565b935050604061253687828801612427565b925050606085013567ffffffffffffffff81111561255357600080fd5b61255f878288016123fd565b91505092959194509250565b6000806040838503121561257e57600080fd5b600061258c858286016123a9565b925050602061259d858286016123be565b9150509250929050565b600080604083850312156125ba57600080fd5b60006125c8858286016123a9565b92505060206125d985828601612427565b9150509250929050565b6000602082840312156125f557600080fd5b6000612603848285016123d3565b91505092915050565b60006020828403121561261e57600080fd5b600061262c848285016123e8565b91505092915050565b60006020828403121561264757600080fd5b600061265584828501612427565b91505092915050565b612667816131ac565b82525050565b612676816131be565b82525050565b600061268782613054565b612691818561306a565b93506126a181856020860161322f565b6126aa816133fb565b840191505092915050565b60006126c08261305f565b6126ca818561307b565b93506126da81856020860161322f565b6126e3816133fb565b840191505092915050565b60006126f98261305f565b612703818561308c565b935061271381856020860161322f565b80840191505092915050565b6000815461272c81613262565b612736818661308c565b94506001821660008114612751576001811461276257612795565b60ff19831686528186019350612795565b61276b8561303f565b60005b8381101561278d5781548189015260018201915060208101905061276e565b838801955050505b50505092915050565b60006127ab60328361307b565b91506127b68261340c565b604082019050919050565b60006127ce601c8361307b565b91506127d98261345b565b602082019050919050565b60006127f1600a8361308c565b91506127fc82613484565b600a82019050919050565b600061281460248361307b565b915061281f826134ad565b604082019050919050565b600061283760198361307b565b9150612842826134fc565b602082019050919050565b600061285a60638361308c565b915061286582613525565b606382019050919050565b600061287d600b8361308c565b9150612888826135c0565b600b82019050919050565b60006128a0602c8361307b565b91506128ab826135e9565b604082019050919050565b60006128c3600d8361308c565b91506128ce82613638565b600d82019050919050565b60006128e660388361307b565b91506128f182613661565b604082019050919050565b6000612909602a8361307b565b9150612914826136b0565b604082019050919050565b600061292c60298361307b565b9150612937826136ff565b604082019050919050565b600061294f602e8361307b565b915061295a8261374e565b604082019050919050565b600061297260028361308c565b915061297d8261379d565b600282019050919050565b600061299560208361307b565b91506129a0826137c6565b602082019050919050565b60006129b860318361307b565b91506129c3826137ef565b604082019050919050565b60006129db602c8361307b565b91506129e68261383e565b604082019050919050565b60006129fe60298361307b565b9150612a098261388d565b604082019050919050565b6000612a21602f8361307b565b9150612a2c826138dc565b604082019050919050565b6000612a44600a8361308c565b9150612a4f8261392b565b600a82019050919050565b6000612a6760218361307b565b9150612a7282613954565b604082019050919050565b6000612a8a600a8361308c565b9150612a95826139a3565b600a82019050919050565b6000612aad601d8361308c565b9150612ab8826139cc565b601d82019050919050565b6000612ad060318361307b565b9150612adb826139f5565b604082019050919050565b612aef81613216565b82525050565b6000612b0182846126ee565b915081905092915050565b6000612b1882856126ee565b9150612b2482846126ee565b91508190509392505050565b6000612b3c82866126ee565b9150612b4882856126ee565b9150612b5482846126ee565b9150819050949350505050565b6000612b6d828761271f565b9150612b7982866126ee565b9150612b8582856126ee565b9150612b9182846126ee565b9150612b9c826128b6565b915081905095945050505050565b6000612bb5826127e4565b9150612bc182846126ee565b915081905092915050565b6000612bd782612870565b9150612be382846126ee565b915081905092915050565b6000612bf982612a37565b9150612c0582856126ee565b9150612c108261284d565b9150612c1c82846126ee565b9150612c2782612965565b91508190509392505050565b6000612c3e82612a7d565b9150612c4a82846126ee565b915081905092915050565b6000612c6082612aa0565b9150612c6c82846126ee565b915081905092915050565b6000602082019050612c8c600083018461265e565b92915050565b6000608082019050612ca7600083018761265e565b612cb4602083018661265e565b612cc16040830185612ae6565b8181036060830152612cd3818461267c565b905095945050505050565b6000604082019050612cf3600083018561265e565b612d006020830184612ae6565b9392505050565b6000602082019050612d1c600083018461266d565b92915050565b60006020820190508181036000830152612d3c81846126b5565b905092915050565b60006040820190508181036000830152612d5e81856126b5565b90508181036020830152612d7281846126b5565b90509392505050565b60006080820190508181036000830152612d9581876126b5565b9050612da46020830186612ae6565b612db1604083018561265e565b8181036060830152612dc381846126b5565b905095945050505050565b60006020820190508181036000830152612de78161279e565b9050919050565b60006020820190508181036000830152612e07816127c1565b9050919050565b60006020820190508181036000830152612e2781612807565b9050919050565b60006020820190508181036000830152612e478161282a565b9050919050565b60006020820190508181036000830152612e6781612893565b9050919050565b60006020820190508181036000830152612e87816128d9565b9050919050565b60006020820190508181036000830152612ea7816128fc565b9050919050565b60006020820190508181036000830152612ec78161291f565b9050919050565b60006020820190508181036000830152612ee781612942565b9050919050565b60006020820190508181036000830152612f0781612988565b9050919050565b60006020820190508181036000830152612f27816129ab565b9050919050565b60006020820190508181036000830152612f47816129ce565b9050919050565b60006020820190508181036000830152612f67816129f1565b9050919050565b60006020820190508181036000830152612f8781612a14565b9050919050565b60006020820190508181036000830152612fa781612a5a565b9050919050565b60006020820190508181036000830152612fc781612ac3565b9050919050565b6000602082019050612fe36000830184612ae6565b92915050565b6000612ff3613004565b9050612fff8282613294565b919050565b6000604051905090565b600067ffffffffffffffff821115613029576130286133cc565b5b613032826133fb565b9050602081019050919050565b60008190508160005260206000209050919050565b600081519050919050565b600081519050919050565b600082825260208201905092915050565b600082825260208201905092915050565b600081905092915050565b60006130a282613216565b91506130ad83613216565b9250827fffffffffffffffffffffffffffffffffffffffffffffffffffffffffffffffff038211156130e2576130e161333f565b5b828201905092915050565b60006130f882613216565b915061310383613216565b9250826131135761311261336e565b5b828204905092915050565b600061312982613216565b915061313483613216565b9250817fffffffffffffffffffffffffffffffffffffffffffffffffffffffffffffffff048311821515161561316d5761316c61333f565b5b828202905092915050565b600061318382613216565b915061318e83613216565b9250828210156131a1576131a061333f565b5b828203905092915050565b60006131b7826131f6565b9050919050565b60008115159050919050565b60007fffffffff0000000000000000000000000000000000000000000000000000000082169050919050565b600073ffffffffffffffffffffffffffffffffffffffff82169050919050565b6000819050919050565b82818337600083830152505050565b60005b8381101561324d578082015181840152602081019050613232565b8381111561325c576000848401525b50505050565b6000600282049050600182168061327a57607f821691505b6020821081141561328e5761328d61339d565b5b50919050565b61329d826133fb565b810181811067ffffffffffffffff821117156132bc576132bb6133cc565b5b80604052505050565b60006132d082613216565b91507fffffffffffffffffffffffffffffffffffffffffffffffffffffffffffffffff8214156133035761330261333f565b5b600182019050919050565b600061331982613216565b915061332483613216565b9250826133345761333361336e565b5b828206905092915050565b7f4e487b7100000000000000000000000000000000000000000000000000000000600052601160045260246000fd5b7f4e487b7100000000000000000000000000000000000000000000000000000000600052601260045260246000fd5b7f4e487b7100000000000000000000000000000000000000000000000000000000600052602260045260246000fd5b7f4e487b7100000000000000000000000000000000000000000000000000000000600052604160045260246000fd5b6000601f19601f8301169050919050565b7f4552433732313a207472616e7366657220746f206e6f6e20455243373231526560008201527f63656976657220696d706c656d656e7465720000000000000000000000000000602082015250565b7f4552433732313a20746f6b656e20616c7265616479206d696e74656400000000600082015250565b7f54484952445f574f524400000000000000000000000000000000000000000000600082015250565b7f4552433732313a207472616e7366657220746f20746865207a65726f2061646460008201527f7265737300000000000000000000000000000000000000000000000000000000602082015250565b7f4552433732313a20617070726f766520746f2063616c6c657200000000000000600082015250565b7f222c20226465736372697074696f6e223a20224120686967686c79206163636c60008201527f61696d656420636f6c6c656374696f6e206f6620737175617265732e222c202260208201527f696d616765223a2022646174613a696d6167652f7376672b786d6c3b6261736560408201527f36342c0000000000000000000000000000000000000000000000000000000000606082015250565b7f5345434f4e445f574f5244000000000000000000000000000000000000000000600082015250565b7f4552433732313a206f70657261746f7220717565727920666f72206e6f6e657860008201527f697374656e7420746f6b656e0000000000000000000000000000000000000000602082015250565b7f3c2f746578743e3c2f7376673e00000000000000000000000000000000000000600082015250565b7f4552433732313a20617070726f76652063616c6c6572206973206e6f74206f7760008201527f6e6572206e6f7220617070726f76656420666f7220616c6c0000000000000000602082015250565b7f4552433732313a2062616c616e636520717565727920666f7220746865207a6560008201527f726f206164647265737300000000000000000000000000000000000000000000602082015250565b7f4552433732313a206f776e657220717565727920666f72206e6f6e657869737460008201527f656e7420746f6b656e0000000000000000000000000000000000000000000000602082015250565b7f45524337323155524953746f726167653a2055524920736574206f66206e6f6e60008201527f6578697374656e7420746f6b656e000000000000000000000000000000000000602082015250565b7f227d000000000000000000000000000000000000000000000000000000000000600082015250565b7f4552433732313a206d696e7420746f20746865207a65726f2061646472657373600082015250565b7f45524337323155524953746f726167653a2055524920717565727920666f722060008201527f6e6f6e6578697374656e7420746f6b656e000000000000000000000000000000602082015250565b7f4552433732313a20617070726f76656420717565727920666f72206e6f6e657860008201527f697374656e7420746f6b656e0000000000000000000000000000000000000000602082015250565b7f4552433732313a207472616e73666572206f6620746f6b656e2074686174206960008201527f73206e6f74206f776e0000000000000000000000000000000000000000000000602082015250565b7f4552433732314d657461646174613a2055524920717565727920666f72206e6f60008201527f6e6578697374656e7420746f6b656e0000000000000000000000000000000000602082015250565b7f7b226e616d65223a202200000000000000000000000000000000000000000000600082015250565b7f4552433732313a20617070726f76616c20746f2063757272656e74206f776e6560008201527f7200000000000000000000000000000000000000000000000000000000000000602082015250565b7f46495253545f574f524400000000000000000000000000000000000000000000600082015250565b7f646174613a6170706c69636174696f6e2f6a736f6e3b6261736536342c000000600082015250565b7f4552433732313a207472616e736665722063616c6c6572206973206e6f74206f60008201527f776e6572206e6f7220617070726f766564000000000000000000000000000000602082015250565b613a4d816131ac565b8114613a5857600080fd5b50565b613a64816131be565b8114613a6f57600080fd5b50565b613a7b816131ca565b8114613a8657600080fd5b50565b613a9281613216565b8114613a9d57600080fd5b5056fe2d2d2d2d2d2d2d2d2d2d2d2d2d2d2d2d2d2d2d2d2d2d2d2d2d2d2d2d2d2d2d2d2d2d2d2d2d3a4142434445464748494a4b4c4d4e4f505152535455565758595a6162636465666768696a6b6c6d6e6f707172737475767778797a303132333435363738392b2f2d2d2d2d2d2d2d2d2d2d2d2d2d2d2d2d2d2d2d2d2d2d2d2d2d2d2d2d2d2d2d2d2d2d2d2d2d2d204e6577204e465420776974682069643a202573200a2d206d696e74656420746f20616464726573733a202573200a2d20746f6b656e5552493a202573200aa26469706673582212201925d0497b1537ed93060850c6ea75f47f849798b0e50cfa09a0383aa34e9eb164736f6c634300080400334c6f6767696e6720576f7264487573746c6572204e465420436f6e7472616374207761676d693c73766720786d6c6e733d27687474703a2f2f7777772e77332e6f72672f323030302f73766727207072657365727665417370656374526174696f3d27784d696e594d696e206d656574272076696577426f783d273020302033353020333530273e3c7374796c653e2e62617365207b2066696c6c3a20236333633b20666f6e742d66616d696c793a2073616e732d73657269663b20666f6e742d73697a653a20313570783b207d3c2f7374796c653e3c726563742077696474683d273130302527206865696768743d2731303025272066696c6c3d27626c61636b27202f3e3c7465787420783d273530252720793d273530252720636c6173733d27626173652720646f6d696e616e742d626173656c696e653d276d6964646c652720746578742d616e63686f723d276d6964646c65273e",
  "linkReferences": {},
  "deployedLinkReferences": {}
}