{
  "_format": "hh-sol-artifact-1",
  "contractName": "WordHustler",
  "sourceName": "contracts/WordHustler.sol",
  "abi": [
    {
      "inputs": [],
      "stateMutability": "nonpayable",
      "type": "constructor"
    },
    {
      "anonymous": false,
      "inputs": [
        {
          "indexed": true,
          "internalType": "address",
          "name": "owner",
          "type": "address"
        },
        {
          "indexed": true,
          "internalType": "address",
          "name": "approved",
          "type": "address"
        },
        {
          "indexed": true,
          "internalType": "uint256",
          "name": "tokenId",
          "type": "uint256"
        }
      ],
      "name": "Approval",
      "type": "event"
    },
    {
      "anonymous": false,
      "inputs": [
        {
          "indexed": true,
          "internalType": "address",
          "name": "owner",
          "type": "address"
        },
        {
          "indexed": true,
          "internalType": "address",
          "name": "operator",
          "type": "address"
        },
        {
          "indexed": false,
          "internalType": "bool",
          "name": "approved",
          "type": "bool"
        }
      ],
      "name": "ApprovalForAll",
      "type": "event"
    },
    {
      "anonymous": false,
      "inputs": [
        {
          "indexed": true,
          "internalType": "address",
          "name": "from",
          "type": "address"
        },
        {
          "indexed": true,
          "internalType": "address",
          "name": "to",
          "type": "address"
        },
        {
          "indexed": true,
          "internalType": "uint256",
          "name": "tokenId",
          "type": "uint256"
        }
      ],
      "name": "Transfer",
      "type": "event"
    },
    {
      "anonymous": false,
      "inputs": [
        {
          "indexed": false,
          "internalType": "address",
          "name": "sender",
          "type": "address"
        },
        {
          "indexed": false,
          "internalType": "uint256",
          "name": "tokenId",
          "type": "uint256"
        }
      ],
      "name": "nftMinted",
      "type": "event"
    },
    {
      "inputs": [
        {
          "internalType": "address",
          "name": "to",
          "type": "address"
        },
        {
          "internalType": "uint256",
          "name": "tokenId",
          "type": "uint256"
        }
      ],
      "name": "approve",
      "outputs": [],
      "stateMutability": "nonpayable",
      "type": "function"
    },
    {
      "inputs": [
        {
          "internalType": "address",
          "name": "owner",
          "type": "address"
        }
      ],
      "name": "balanceOf",
      "outputs": [
        {
          "internalType": "uint256",
          "name": "",
          "type": "uint256"
        }
      ],
      "stateMutability": "view",
      "type": "function"
    },
    {
      "inputs": [
        {
          "internalType": "uint256",
          "name": "tokenId",
          "type": "uint256"
        }
      ],
      "name": "getApproved",
      "outputs": [
        {
          "internalType": "address",
          "name": "",
          "type": "address"
        }
      ],
      "stateMutability": "view",
      "type": "function"
    },
    {
      "inputs": [],
      "name": "getTokenNumber",
      "outputs": [
        {
          "internalType": "uint256",
          "name": "",
          "type": "uint256"
        }
      ],
      "stateMutability": "view",
      "type": "function"
    },
    {
      "inputs": [
        {
          "internalType": "address",
          "name": "owner",
          "type": "address"
        },
        {
          "internalType": "address",
          "name": "operator",
          "type": "address"
        }
      ],
      "name": "isApprovedForAll",
      "outputs": [
        {
          "internalType": "bool",
          "name": "",
          "type": "bool"
        }
      ],
      "stateMutability": "view",
      "type": "function"
    },
    {
      "inputs": [],
      "name": "maxSupply",
      "outputs": [
        {
          "internalType": "uint256",
          "name": "",
          "type": "uint256"
        }
      ],
      "stateMutability": "view",
      "type": "function"
    },
    {
      "inputs": [],
      "name": "mintNFT",
      "outputs": [],
      "stateMutability": "nonpayable",
      "type": "function"
    },
    {
      "inputs": [],
      "name": "name",
      "outputs": [
        {
          "internalType": "string",
          "name": "",
          "type": "string"
        }
      ],
      "stateMutability": "view",
      "type": "function"
    },
    {
      "inputs": [
        {
          "internalType": "uint256",
          "name": "tokenId",
          "type": "uint256"
        }
      ],
      "name": "ownerOf",
      "outputs": [
        {
          "internalType": "address",
          "name": "",
          "type": "address"
        }
      ],
      "stateMutability": "view",
      "type": "function"
    },
    {
      "inputs": [
        {
          "internalType": "uint256",
          "name": "_tokenId",
          "type": "uint256"
        }
      ],
      "name": "pickRandomFirstWord",
      "outputs": [
        {
          "internalType": "string",
          "name": "",
          "type": "string"
        }
      ],
      "stateMutability": "view",
      "type": "function"
    },
    {
      "inputs": [
        {
          "internalType": "uint256",
          "name": "_tokenId",
          "type": "uint256"
        }
      ],
      "name": "pickRandomSecondWord",
      "outputs": [
        {
          "internalType": "string",
          "name": "",
          "type": "string"
        }
      ],
      "stateMutability": "view",
      "type": "function"
    },
    {
      "inputs": [
        {
          "internalType": "uint256",
          "name": "_tokenId",
          "type": "uint256"
        }
      ],
      "name": "pickRandomThirdWord",
      "outputs": [
        {
          "internalType": "string",
          "name": "",
          "type": "string"
        }
      ],
      "stateMutability": "view",
      "type": "function"
    },
    {
      "inputs": [
        {
          "internalType": "address",
          "name": "from",
          "type": "address"
        },
        {
          "internalType": "address",
          "name": "to",
          "type": "address"
        },
        {
          "internalType": "uint256",
          "name": "tokenId",
          "type": "uint256"
        }
      ],
      "name": "safeTransferFrom",
      "outputs": [],
      "stateMutability": "nonpayable",
      "type": "function"
    },
    {
      "inputs": [
        {
          "internalType": "address",
          "name": "from",
          "type": "address"
        },
        {
          "internalType": "address",
          "name": "to",
          "type": "address"
        },
        {
          "internalType": "uint256",
          "name": "tokenId",
          "type": "uint256"
        },
        {
          "internalType": "bytes",
          "name": "_data",
          "type": "bytes"
        }
      ],
      "name": "safeTransferFrom",
      "outputs": [],
      "stateMutability": "nonpayable",
      "type": "function"
    },
    {
      "inputs": [
        {
          "internalType": "address",
          "name": "operator",
          "type": "address"
        },
        {
          "internalType": "bool",
          "name": "approved",
          "type": "bool"
        }
      ],
      "name": "setApprovalForAll",
      "outputs": [],
      "stateMutability": "nonpayable",
      "type": "function"
    },
    {
      "inputs": [
        {
          "internalType": "bytes4",
          "name": "interfaceId",
          "type": "bytes4"
        }
      ],
      "name": "supportsInterface",
      "outputs": [
        {
          "internalType": "bool",
          "name": "",
          "type": "bool"
        }
      ],
      "stateMutability": "view",
      "type": "function"
    },
    {
      "inputs": [],
      "name": "symbol",
      "outputs": [
        {
          "internalType": "string",
          "name": "",
          "type": "string"
        }
      ],
      "stateMutability": "view",
      "type": "function"
    },
    {
      "inputs": [
        {
          "internalType": "uint256",
          "name": "tokenId",
          "type": "uint256"
        }
      ],
      "name": "tokenURI",
      "outputs": [
        {
          "internalType": "string",
          "name": "",
          "type": "string"
        }
      ],
      "stateMutability": "view",
      "type": "function"
    },
    {
      "inputs": [
        {
          "internalType": "address",
          "name": "from",
          "type": "address"
        },
        {
          "internalType": "address",
          "name": "to",
          "type": "address"
        },
        {
          "internalType": "uint256",
          "name": "tokenId",
          "type": "uint256"
        }
      ],
      "name": "transferFrom",
      "outputs": [],
      "stateMutability": "nonpayable",
      "type": "function"
    }
  ],
  "bytecode": "0x6080604052603160085560405180610160016040528061013381526020016200494e6101339139600990805190602001906200003d929190620008e0565b506040518060400160405280600d81526020017f3c2f746578743e3c2f7376673e00000000000000000000000000000000000000815250600a90805190602001906200008b929190620008e0565b506040518061014001604052806040518060400160405280600881526020017f506f77657266756c00000000000000000000000000000000000000000000000081525081526020016040518060400160405280600981526020017f44656d656e7469616c000000000000000000000000000000000000000000000081525081526020016040518060400160405280600b81526020017f416c676f726974686d696300000000000000000000000000000000000000000081525081526020016040518060200160405280600081525081526020016040518060400160405280600981526020017f496e74726f76657274000000000000000000000000000000000000000000000081525081526020016040518060400160405280600a81526020017f4972726174696f6e616c0000000000000000000000000000000000000000000081525081526020016040518060400160405280600481526020017f4c6f636f0000000000000000000000000000000000000000000000000000000081525081526020016040518060400160405280600781526020017f506572666563740000000000000000000000000000000000000000000000000081525081526020016040518060400160405280600481526020017f427573790000000000000000000000000000000000000000000000000000000081525081526020016040518060400160405280600881526020017f43617574696f7573000000000000000000000000000000000000000000000000815250815250600b90600a620002d092919062000971565b506040518061012001604052806040518060400160405280600681526020017f536173756b65000000000000000000000000000000000000000000000000000081525081526020016040518060400160405280600681526020017f53656e706169000000000000000000000000000000000000000000000000000081525081526020016040518060400160405280600781526020017f50696b616368750000000000000000000000000000000000000000000000000081525081526020016040518060400160405280600681526020017f4261746d616e000000000000000000000000000000000000000000000000000081525081526020016040518060400160405280600481526020017f456c6f6e0000000000000000000000000000000000000000000000000000000081525081526020016040518060400160405280600881526020017f45696e737465696e00000000000000000000000000000000000000000000000081525081526020016040518060400160405280600481526020017f43656c6c0000000000000000000000000000000000000000000000000000000081525081526020016040518060400160405280600781526020017f546561636865720000000000000000000000000000000000000000000000000081525081526020016040518060400160405280600c81526020017f517531636b5363307045725a0000000000000000000000000000000000000000815250815250600c90600962000500929190620009d8565b506040518061012001604052806040518060400160405280600481526020017f393030300000000000000000000000000000000000000000000000000000000081525081526020016040518060400160405280600381526020017f343230000000000000000000000000000000000000000000000000000000000081525081526020016040518060400160405280600281526020017f363900000000000000000000000000000000000000000000000000000000000081525081526020016040518060400160405280600381526020017f363636000000000000000000000000000000000000000000000000000000000081525081526020016040518060400160405280600481526020017f5f305f300000000000000000000000000000000000000000000000000000000081525081526020016040518060400160405280600481526020017f313233340000000000000000000000000000000000000000000000000000000081525081526020016040518060400160405280600481526020017f393039300000000000000000000000000000000000000000000000000000000081525081526020016040518060400160405280600281526020017f323500000000000000000000000000000000000000000000000000000000000081525081526020016040518060400160405280600581526020017f3c2d5f2d3e000000000000000000000000000000000000000000000000000000815250815250600d90600962000730929190620009d8565b503480156200073e57600080fd5b506040518060400160405280600b81526020017f576f7264487573746c65720000000000000000000000000000000000000000008152506040518060400160405280600781526020017f57487573746c65000000000000000000000000000000000000000000000000008152508160009080519060200190620007c3929190620008e0565b508060019080519060200190620007dc929190620008e0565b5050506200080e60405180606001604052806026815260200162004928602691396200081460201b6200139d1760201c565b62000bf9565b620008b4816040516024016200082b919062000b0d565b6040516020818303038152906040527f41304fac000000000000000000000000000000000000000000000000000000007bffffffffffffffffffffffffffffffffffffffffffffffffffffffff19166020820180517bffffffffffffffffffffffffffffffffffffffffffffffffffffffff8381831617835250505050620008b760201b60201c565b50565b60008151905060006a636f6e736f6c652e6c6f679050602083016000808483855afa5050505050565b828054620008ee9062000b83565b90600052602060002090601f0160209004810192826200091257600085556200095e565b82601f106200092d57805160ff19168380011785556200095e565b828001600101855582156200095e579182015b828111156200095d57825182559160200191906001019062000940565b5b5090506200096d919062000a3f565b5090565b828054828255906000526020600020908101928215620009c5579160200282015b82811115620009c4578251829080519060200190620009b3929190620008e0565b509160200191906001019062000992565b5b509050620009d4919062000a5e565b5090565b82805482825590600052602060002090810192821562000a2c579160200282015b8281111562000a2b57825182908051906020019062000a1a929190620008e0565b5091602001919060010190620009f9565b5b50905062000a3b919062000a5e565b5090565b5b8082111562000a5a57600081600090555060010162000a40565b5090565b5b8082111562000a82576000818162000a78919062000a86565b5060010162000a5f565b5090565b50805462000a949062000b83565b6000825580601f1062000aa8575062000ac9565b601f01602090049060005260206000209081019062000ac8919062000a3f565b5b50565b600062000ad98262000b31565b62000ae5818562000b3c565b935062000af781856020860162000b4d565b62000b028162000be8565b840191505092915050565b6000602082019050818103600083015262000b29818462000acc565b905092915050565b600081519050919050565b600082825260208201905092915050565b60005b8381101562000b6d57808201518184015260208101905062000b50565b8381111562000b7d576000848401525b50505050565b6000600282049050600182168062000b9c57607f821691505b6020821081141562000bb35762000bb262000bb9565b5b50919050565b7f4e487b7100000000000000000000000000000000000000000000000000000000600052602260045260246000fd5b6000601f19601f8301169050919050565b613d1f8062000c096000396000f3fe608060405234801561001057600080fd5b50600436106101215760003560e01c80636352211e116100ad578063b88d4fde11610071578063b88d4fde1461031a578063c575757a14610336578063c87b56dd14610366578063d5abeb0114610396578063e985e9c5146103b457610121565b80636352211e1461025057806370a082311461028057806395d89b41146102b0578063a22cb465146102ce578063b187301f146102ea57610121565b806314f710fe116100f457806314f710fe146101c057806323b872dd146101ca5780632de38d68146101e657806342842e0e146102165780635f5ed5981461023257610121565b806301ffc9a71461012657806306fdde0314610156578063081812fc14610174578063095ea7b3146101a4575b600080fd5b610140600480360381019061013b91906126cf565b6103e4565b60405161014d9190612e16565b60405180910390f35b61015e6104c6565b60405161016b9190612e31565b60405180910390f35b61018e60048036038101906101899190612721565b610558565b60405161019b9190612d86565b60405180910390f35b6101be60048036038101906101b99190612693565b6105dd565b005b6101c86106f5565b005b6101e460048036038101906101df919061258d565b6109a9565b005b61020060048036038101906101fb9190612721565b610a09565b60405161020d9190612e31565b60405180910390f35b610230600480360381019061022b919061258d565b610b27565b005b61023a610b47565b60405161024791906130fd565b60405180910390f35b61026a60048036038101906102659190612721565b610b96565b6040516102779190612d86565b60405180910390f35b61029a60048036038101906102959190612528565b610c48565b6040516102a791906130fd565b60405180910390f35b6102b8610d00565b6040516102c59190612e31565b60405180910390f35b6102e860048036038101906102e39190612657565b610d92565b005b61030460048036038101906102ff9190612721565b610f13565b6040516103119190612e31565b60405180910390f35b610334600480360381019061032f91906125dc565b611031565b005b610350600480360381019061034b9190612721565b611093565b60405161035d9190612e31565b60405180910390f35b610380600480360381019061037b9190612721565b6111b1565b60405161038d9190612e31565b60405180910390f35b61039e611303565b6040516103ab91906130fd565b60405180910390f35b6103ce60048036038101906103c99190612551565b611309565b6040516103db9190612e16565b60405180910390f35b60007f80ac58cd000000000000000000000000000000000000000000000000000000007bffffffffffffffffffffffffffffffffffffffffffffffffffffffff1916827bffffffffffffffffffffffffffffffffffffffffffffffffffffffff191614806104af57507f5b5e139f000000000000000000000000000000000000000000000000000000007bffffffffffffffffffffffffffffffffffffffffffffffffffffffff1916827bffffffffffffffffffffffffffffffffffffffffffffffffffffffff1916145b806104bf57506104be82611436565b5b9050919050565b6060600080546104d590613391565b80601f016020809104026020016040519081016040528092919081815260200182805461050190613391565b801561054e5780601f106105235761010080835404028352916020019161054e565b820191906000526020600020905b81548152906001019060200180831161053157829003601f168201915b5050505050905090565b6000610563826114a0565b6105a2576040517f08c379a00000000000000000000000000000000000000000000000000000000081526004016105999061303d565b60405180910390fd5b6004600083815260200190815260200160002060009054906101000a900473ffffffffffffffffffffffffffffffffffffffff169050919050565b60006105e882610b96565b90508073ffffffffffffffffffffffffffffffffffffffff168373ffffffffffffffffffffffffffffffffffffffff161415610659576040517f08c379a00000000000000000000000000000000000000000000000000000000081526004016106509061309d565b60405180910390fd5b8073ffffffffffffffffffffffffffffffffffffffff1661067861150c565b73ffffffffffffffffffffffffffffffffffffffff1614806106a757506106a6816106a161150c565b611309565b5b6106e6576040517f08c379a00000000000000000000000000000000000000000000000000000000081526004016106dd90612f7d565b60405180910390fd5b6106f08383611514565b505050565b600061070160076115cd565b9050600854811115610748576040517f08c379a000000000000000000000000000000000000000000000000000000000815260040161073f906130bd565b60405180910390fd5b600061075382610a09565b9050600061076083610f13565b9050600061076d84611093565b9050600083838360405160200161078693929190612c3f565b60405160208183030381529060405290506107d66040518060400160405280600a81526020017f576f726420313a20257300000000000000000000000000000000000000000000815250856115db565b6108156040518060400160405280600a81526020017f576f726420323a20257300000000000000000000000000000000000000000000815250846115db565b6108546040518060400160405280600a81526020017f576f726420333a20257300000000000000000000000000000000000000000000815250836115db565b6000600985858560405160200161086e9493929190612c70565b60405160208183030381529060405290506108a0604051806060016040528060268152602001613c1f6026913961139d565b6108a98161139d565b6108ca604051806060016040528060258152602001613c856025913961139d565b60006108fe836108d984611677565b6040516020016108ea929190612cfd565b604051602081830303815290604052611677565b90506000816040516020016109139190612d64565b604051602081830303815290604052905061092e3389611835565b6109388882611853565b61095c604051806060016040528060408152602001613caa604091398933846118c7565b6109666007611969565b7fbbedd439cfe8aa51324de58375e6ffccc4ac766d72b9aaeb8a0e4960923ea4163389604051610997929190612ded565b60405180910390a15050505050505050565b6109ba6109b461150c565b8261197f565b6109f9576040517f08c379a00000000000000000000000000000000000000000000000000000000081526004016109f0906130dd565b60405180910390fd5b610a04838383611a5d565b505050565b60606000610a3d610a1984611cb9565b604051602001610a299190612d42565b604051602081830303815290604052611e66565b9050600b8054905081610a50919061343d565b9050600b8181548110610a8c577f4e487b7100000000000000000000000000000000000000000000000000000000600052603260045260246000fd5b906000526020600020018054610aa190613391565b80601f0160208091040260200160405190810160405280929190818152602001828054610acd90613391565b8015610b1a5780601f10610aef57610100808354040283529160200191610b1a565b820191906000526020600020905b815481529060010190602001808311610afd57829003601f168201915b5050505050915050919050565b610b4283838360405180602001604052806000815250611031565b505050565b6000610b876040518060400160405280601881526020017f43616c6c696e6620676574546f6b656e4e756d6265723a20000000000000000081525061139d565b610b9160076115cd565b905090565b6000806002600084815260200190815260200160002060009054906101000a900473ffffffffffffffffffffffffffffffffffffffff169050600073ffffffffffffffffffffffffffffffffffffffff168173ffffffffffffffffffffffffffffffffffffffff161415610c3f576040517f08c379a0000000000000000000000000000000000000000000000000000000008152600401610c3690612fbd565b60405180910390fd5b80915050919050565b60008073ffffffffffffffffffffffffffffffffffffffff168273ffffffffffffffffffffffffffffffffffffffff161415610cb9576040517f08c379a0000000000000000000000000000000000000000000000000000000008152600401610cb090612f9d565b60405180910390fd5b600360008373ffffffffffffffffffffffffffffffffffffffff1673ffffffffffffffffffffffffffffffffffffffff168152602001908152602001600020549050919050565b606060018054610d0f90613391565b80601f0160208091040260200160405190810160405280929190818152602001828054610d3b90613391565b8015610d885780601f10610d5d57610100808354040283529160200191610d88565b820191906000526020600020905b815481529060010190602001808311610d6b57829003601f168201915b5050505050905090565b610d9a61150c565b73ffffffffffffffffffffffffffffffffffffffff168273ffffffffffffffffffffffffffffffffffffffff161415610e08576040517f08c379a0000000000000000000000000000000000000000000000000000000008152600401610dff90612f3d565b60405180910390fd5b8060056000610e1561150c565b73ffffffffffffffffffffffffffffffffffffffff1673ffffffffffffffffffffffffffffffffffffffff16815260200190815260200160002060008473ffffffffffffffffffffffffffffffffffffffff1673ffffffffffffffffffffffffffffffffffffffff16815260200190815260200160002060006101000a81548160ff0219169083151502179055508173ffffffffffffffffffffffffffffffffffffffff16610ec261150c565b73ffffffffffffffffffffffffffffffffffffffff167f17307eab39ab6107e8899845ad3d59bd9653f200f220920489ca2b5937696c3183604051610f079190612e16565b60405180910390a35050565b60606000610f47610f2384611cb9565b604051602001610f339190612cdb565b604051602081830303815290604052611e66565b9050600c8054905081610f5a919061343d565b9050600c8181548110610f96577f4e487b7100000000000000000000000000000000000000000000000000000000600052603260045260246000fd5b906000526020600020018054610fab90613391565b80601f0160208091040260200160405190810160405280929190818152602001828054610fd790613391565b80156110245780601f10610ff957610100808354040283529160200191611024565b820191906000526020600020905b81548152906001019060200180831161100757829003601f168201915b5050505050915050919050565b61104261103c61150c565b8361197f565b611081576040517f08c379a0000000000000000000000000000000000000000000000000000000008152600401611078906130dd565b60405180910390fd5b61108d84848484611e99565b50505050565b606060006110c76110a384611cb9565b6040516020016110b39190612cb9565b604051602081830303815290604052611e66565b9050600d80549050816110da919061343d565b9050600d8181548110611116577f4e487b7100000000000000000000000000000000000000000000000000000000600052603260045260246000fd5b90600052602060002001805461112b90613391565b80601f016020809104026020016040519081016040528092919081815260200182805461115790613391565b80156111a45780601f10611179576101008083540402835291602001916111a4565b820191906000526020600020905b81548152906001019060200180831161118757829003601f168201915b5050505050915050919050565b60606111bc826114a0565b6111fb576040517f08c379a00000000000000000000000000000000000000000000000000000000081526004016111f29061301d565b60405180910390fd5b600060066000848152602001908152602001600020805461121b90613391565b80601f016020809104026020016040519081016040528092919081815260200182805461124790613391565b80156112945780601f1061126957610100808354040283529160200191611294565b820191906000526020600020905b81548152906001019060200180831161127757829003601f168201915b5050505050905060006112a5611ef5565b90506000815114156112bb5781925050506112fe565b6000825111156112f05780826040516020016112d8929190612c1b565b604051602081830303815290604052925050506112fe565b6112f984611f0c565b925050505b919050565b60085481565b6000600560008473ffffffffffffffffffffffffffffffffffffffff1673ffffffffffffffffffffffffffffffffffffffff16815260200190815260200160002060008373ffffffffffffffffffffffffffffffffffffffff1673ffffffffffffffffffffffffffffffffffffffff16815260200190815260200160002060009054906101000a900460ff16905092915050565b611433816040516024016113b19190612e31565b6040516020818303038152906040527f41304fac000000000000000000000000000000000000000000000000000000007bffffffffffffffffffffffffffffffffffffffffffffffffffffffff19166020820180517bffffffffffffffffffffffffffffffffffffffffffffffffffffffff8381831617835250505050611fb3565b50565b60007f01ffc9a7000000000000000000000000000000000000000000000000000000007bffffffffffffffffffffffffffffffffffffffffffffffffffffffff1916827bffffffffffffffffffffffffffffffffffffffffffffffffffffffff1916149050919050565b60008073ffffffffffffffffffffffffffffffffffffffff166002600084815260200190815260200160002060009054906101000a900473ffffffffffffffffffffffffffffffffffffffff1673ffffffffffffffffffffffffffffffffffffffff1614159050919050565b600033905090565b816004600083815260200190815260200160002060006101000a81548173ffffffffffffffffffffffffffffffffffffffff021916908373ffffffffffffffffffffffffffffffffffffffff160217905550808273ffffffffffffffffffffffffffffffffffffffff1661158783610b96565b73ffffffffffffffffffffffffffffffffffffffff167f8c5be1e5ebec7d5bd14f71427d1e84f3dd0314c0f7b2291e5b200ac8c7c3b92560405160405180910390a45050565b600081600001549050919050565b61167382826040516024016115f1929190612e53565b6040516020818303038152906040527f4b5c4277000000000000000000000000000000000000000000000000000000007bffffffffffffffffffffffffffffffffffffffffffffffffffffffff19166020820180517bffffffffffffffffffffffffffffffffffffffffffffffffffffffff8381831617835250505050611fb3565b5050565b606060008251905060008114156116a05760405180602001604052806000815250915050611830565b600060036002836116b191906131c6565b6116bb919061321c565b60046116c7919061324d565b905060006020826116d891906131c6565b67ffffffffffffffff811115611717577f4e487b7100000000000000000000000000000000000000000000000000000000600052604160045260246000fd5b6040519080825280601f01601f1916602001820160405280156117495781602001600182028036833780820191505090505b5090506000604051806060016040528060408152602001613c45604091399050600181016020830160005b868110156117ed5760038101905062ffffff818a015116603f8160121c168401518060081b905060ff603f83600c1c1686015116810190508060081b905060ff603f8360061c1686015116810190508060081b905060ff603f831686015116810190508060e01b90508084526004840193505050611774565b506003860660018114611807576002811461181757611822565b613d3d60f01b6002830352611822565b603d60f81b60018303525b508484525050819450505050505b919050565b61184f828260405180602001604052806000815250611fdc565b5050565b61185c826114a0565b61189b576040517f08c379a000000000000000000000000000000000000000000000000000000000815260040161189290612fdd565b60405180910390fd5b806006600084815260200190815260200160002090805190602001906118c29291906123b4565b505050565b611963848484846040516024016118e19493929190612e8a565b6040516020818303038152906040527f3254c2e8000000000000000000000000000000000000000000000000000000007bffffffffffffffffffffffffffffffffffffffffffffffffffffffff19166020820180517bffffffffffffffffffffffffffffffffffffffffffffffffffffffff8381831617835250505050611fb3565b50505050565b6001816000016000828254019250508190555050565b600061198a826114a0565b6119c9576040517f08c379a00000000000000000000000000000000000000000000000000000000081526004016119c090612f5d565b60405180910390fd5b60006119d483610b96565b90508073ffffffffffffffffffffffffffffffffffffffff168473ffffffffffffffffffffffffffffffffffffffff161480611a4357508373ffffffffffffffffffffffffffffffffffffffff16611a2b84610558565b73ffffffffffffffffffffffffffffffffffffffff16145b80611a545750611a538185611309565b5b91505092915050565b8273ffffffffffffffffffffffffffffffffffffffff16611a7d82610b96565b73ffffffffffffffffffffffffffffffffffffffff1614611ad3576040517f08c379a0000000000000000000000000000000000000000000000000000000008152600401611aca9061305d565b60405180910390fd5b600073ffffffffffffffffffffffffffffffffffffffff168273ffffffffffffffffffffffffffffffffffffffff161415611b43576040517f08c379a0000000000000000000000000000000000000000000000000000000008152600401611b3a90612f1d565b60405180910390fd5b611b4e838383612037565b611b59600082611514565b6001600360008573ffffffffffffffffffffffffffffffffffffffff1673ffffffffffffffffffffffffffffffffffffffff1681526020019081526020016000206000828254611ba991906132a7565b925050819055506001600360008473ffffffffffffffffffffffffffffffffffffffff1673ffffffffffffffffffffffffffffffffffffffff1681526020019081526020016000206000828254611c0091906131c6565b92505081905550816002600083815260200190815260200160002060006101000a81548173ffffffffffffffffffffffffffffffffffffffff021916908373ffffffffffffffffffffffffffffffffffffffff160217905550808273ffffffffffffffffffffffffffffffffffffffff168473ffffffffffffffffffffffffffffffffffffffff167fddf252ad1be2c89b69c2b068fc378daa952ba7f163c4a11628f55a4df523b3ef60405160405180910390a4505050565b60606000821415611d01576040518060400160405280600181526020017f30000000000000000000000000000000000000000000000000000000000000008152509050611e61565b600082905060005b60008214611d33578080611d1c906133f4565b915050600a82611d2c919061321c565b9150611d09565b60008167ffffffffffffffff811115611d75577f4e487b7100000000000000000000000000000000000000000000000000000000600052604160045260246000fd5b6040519080825280601f01601f191660200182016040528015611da75781602001600182028036833780820191505090505b5090505b60008514611e5a57600182611dc091906132a7565b9150600a85611dcf919061343d565b6030611ddb91906131c6565b60f81b818381518110611e17577f4e487b7100000000000000000000000000000000000000000000000000000000600052603260045260246000fd5b60200101907effffffffffffffffffffffffffffffffffffffffffffffffffffffffffffff1916908160001a905350600a85611e53919061321c565b9450611dab565b8093505050505b919050565b600081604051602001611e799190612c04565b6040516020818303038152906040528051906020012060001c9050919050565b611ea4848484611a5d565b611eb08484848461203c565b611eef576040517f08c379a0000000000000000000000000000000000000000000000000000000008152600401611ee690612edd565b60405180910390fd5b50505050565b606060405180602001604052806000815250905090565b6060611f17826114a0565b611f56576040517f08c379a0000000000000000000000000000000000000000000000000000000008152600401611f4d9061307d565b60405180910390fd5b6000611f60611ef5565b90506000815111611f805760405180602001604052806000815250611fab565b80611f8a84611cb9565b604051602001611f9b929190612c1b565b6040516020818303038152906040525b915050919050565b60008151905060006a636f6e736f6c652e6c6f679050602083016000808483855afa5050505050565b611fe683836121d3565b611ff3600084848461203c565b612032576040517f08c379a000000000000000000000000000000000000000000000000000000000815260040161202990612edd565b60405180910390fd5b505050565b505050565b600061205d8473ffffffffffffffffffffffffffffffffffffffff166123a1565b156121c6578373ffffffffffffffffffffffffffffffffffffffff1663150b7a0261208661150c565b8786866040518563ffffffff1660e01b81526004016120a89493929190612da1565b602060405180830381600087803b1580156120c257600080fd5b505af19250505080156120f357506040513d601f19601f820116820180604052508101906120f091906126f8565b60015b612176573d8060008114612123576040519150601f19603f3d011682016040523d82523d6000602084013e612128565b606091505b5060008151141561216e576040517f08c379a000000000000000000000000000000000000000000000000000000000815260040161216590612edd565b60405180910390fd5b805181602001fd5b63150b7a0260e01b7bffffffffffffffffffffffffffffffffffffffffffffffffffffffff1916817bffffffffffffffffffffffffffffffffffffffffffffffffffffffff1916149150506121cb565b600190505b949350505050565b600073ffffffffffffffffffffffffffffffffffffffff168273ffffffffffffffffffffffffffffffffffffffff161415612243576040517f08c379a000000000000000000000000000000000000000000000000000000000815260040161223a90612ffd565b60405180910390fd5b61224c816114a0565b1561228c576040517f08c379a000000000000000000000000000000000000000000000000000000000815260040161228390612efd565b60405180910390fd5b61229860008383612037565b6001600360008473ffffffffffffffffffffffffffffffffffffffff1673ffffffffffffffffffffffffffffffffffffffff16815260200190815260200160002060008282546122e891906131c6565b92505081905550816002600083815260200190815260200160002060006101000a81548173ffffffffffffffffffffffffffffffffffffffff021916908373ffffffffffffffffffffffffffffffffffffffff160217905550808273ffffffffffffffffffffffffffffffffffffffff16600073ffffffffffffffffffffffffffffffffffffffff167fddf252ad1be2c89b69c2b068fc378daa952ba7f163c4a11628f55a4df523b3ef60405160405180910390a45050565b600080823b905060008111915050919050565b8280546123c090613391565b90600052602060002090601f0160209004810192826123e25760008555612429565b82601f106123fb57805160ff1916838001178555612429565b82800160010185558215612429579182015b8281111561242857825182559160200191906001019061240d565b5b509050612436919061243a565b5090565b5b8082111561245357600081600090555060010161243b565b5090565b600061246a6124658461313d565b613118565b90508281526020810184848401111561248257600080fd5b61248d84828561334f565b509392505050565b6000813590506124a481613bc2565b92915050565b6000813590506124b981613bd9565b92915050565b6000813590506124ce81613bf0565b92915050565b6000815190506124e381613bf0565b92915050565b600082601f8301126124fa57600080fd5b813561250a848260208601612457565b91505092915050565b60008135905061252281613c07565b92915050565b60006020828403121561253a57600080fd5b600061254884828501612495565b91505092915050565b6000806040838503121561256457600080fd5b600061257285828601612495565b925050602061258385828601612495565b9150509250929050565b6000806000606084860312156125a257600080fd5b60006125b086828701612495565b93505060206125c186828701612495565b92505060406125d286828701612513565b9150509250925092565b600080600080608085870312156125f257600080fd5b600061260087828801612495565b945050602061261187828801612495565b935050604061262287828801612513565b925050606085013567ffffffffffffffff81111561263f57600080fd5b61264b878288016124e9565b91505092959194509250565b6000806040838503121561266a57600080fd5b600061267885828601612495565b9250506020612689858286016124aa565b9150509250929050565b600080604083850312156126a657600080fd5b60006126b485828601612495565b92505060206126c585828601612513565b9150509250929050565b6000602082840312156126e157600080fd5b60006126ef848285016124bf565b91505092915050565b60006020828403121561270a57600080fd5b6000612718848285016124d4565b91505092915050565b60006020828403121561273357600080fd5b600061274184828501612513565b91505092915050565b612753816132db565b82525050565b612762816132ed565b82525050565b600061277382613183565b61277d8185613199565b935061278d81856020860161335e565b6127968161352a565b840191505092915050565b60006127ac8261318e565b6127b681856131aa565b93506127c681856020860161335e565b6127cf8161352a565b840191505092915050565b60006127e58261318e565b6127ef81856131bb565b93506127ff81856020860161335e565b80840191505092915050565b6000815461281881613391565b61282281866131bb565b9450600182166000811461283d576001811461284e57612881565b60ff19831686528186019350612881565b6128578561316e565b60005b838110156128795781548189015260018201915060208101905061285a565b838801955050505b50505092915050565b60006128976032836131aa565b91506128a28261353b565b604082019050919050565b60006128ba601c836131aa565b91506128c58261358a565b602082019050919050565b60006128dd600a836131bb565b91506128e8826135b3565b600a82019050919050565b60006129006024836131aa565b915061290b826135dc565b604082019050919050565b60006129236019836131aa565b915061292e8261362b565b602082019050919050565b60006129466063836131bb565b915061295182613654565b606382019050919050565b6000612969600b836131bb565b9150612974826136ef565b600b82019050919050565b600061298c602c836131aa565b915061299782613718565b604082019050919050565b60006129af600d836131bb565b91506129ba82613767565b600d82019050919050565b60006129d26038836131aa565b91506129dd82613790565b604082019050919050565b60006129f5602a836131aa565b9150612a00826137df565b604082019050919050565b6000612a186029836131aa565b9150612a238261382e565b604082019050919050565b6000612a3b602e836131aa565b9150612a468261387d565b604082019050919050565b6000612a5e6002836131bb565b9150612a69826138cc565b600282019050919050565b6000612a816020836131aa565b9150612a8c826138f5565b602082019050919050565b6000612aa46031836131aa565b9150612aaf8261391e565b604082019050919050565b6000612ac7602c836131aa565b9150612ad28261396d565b604082019050919050565b6000612aea6029836131aa565b9150612af5826139bc565b604082019050919050565b6000612b0d602f836131aa565b9150612b1882613a0b565b604082019050919050565b6000612b30600a836131bb565b9150612b3b82613a5a565b600a82019050919050565b6000612b536021836131aa565b9150612b5e82613a83565b604082019050919050565b6000612b76600a836131bb565b9150612b8182613ad2565b600a82019050919050565b6000612b99601d836131bb565b9150612ba482613afb565b601d82019050919050565b6000612bbc6027836131aa565b9150612bc782613b24565b604082019050919050565b6000612bdf6031836131aa565b9150612bea82613b73565b604082019050919050565b612bfe81613345565b82525050565b6000612c1082846127da565b915081905092915050565b6000612c2782856127da565b9150612c3382846127da565b91508190509392505050565b6000612c4b82866127da565b9150612c5782856127da565b9150612c6382846127da565b9150819050949350505050565b6000612c7c828761280b565b9150612c8882866127da565b9150612c9482856127da565b9150612ca082846127da565b9150612cab826129a2565b915081905095945050505050565b6000612cc4826128d0565b9150612cd082846127da565b915081905092915050565b6000612ce68261295c565b9150612cf282846127da565b915081905092915050565b6000612d0882612b23565b9150612d1482856127da565b9150612d1f82612939565b9150612d2b82846127da565b9150612d3682612a51565b91508190509392505050565b6000612d4d82612b69565b9150612d5982846127da565b915081905092915050565b6000612d6f82612b8c565b9150612d7b82846127da565b915081905092915050565b6000602082019050612d9b600083018461274a565b92915050565b6000608082019050612db6600083018761274a565b612dc3602083018661274a565b612dd06040830185612bf5565b8181036060830152612de28184612768565b905095945050505050565b6000604082019050612e02600083018561274a565b612e0f6020830184612bf5565b9392505050565b6000602082019050612e2b6000830184612759565b92915050565b60006020820190508181036000830152612e4b81846127a1565b905092915050565b60006040820190508181036000830152612e6d81856127a1565b90508181036020830152612e8181846127a1565b90509392505050565b60006080820190508181036000830152612ea481876127a1565b9050612eb36020830186612bf5565b612ec0604083018561274a565b8181036060830152612ed281846127a1565b905095945050505050565b60006020820190508181036000830152612ef68161288a565b9050919050565b60006020820190508181036000830152612f16816128ad565b9050919050565b60006020820190508181036000830152612f36816128f3565b9050919050565b60006020820190508181036000830152612f5681612916565b9050919050565b60006020820190508181036000830152612f768161297f565b9050919050565b60006020820190508181036000830152612f96816129c5565b9050919050565b60006020820190508181036000830152612fb6816129e8565b9050919050565b60006020820190508181036000830152612fd681612a0b565b9050919050565b60006020820190508181036000830152612ff681612a2e565b9050919050565b6000602082019050818103600083015261301681612a74565b9050919050565b6000602082019050818103600083015261303681612a97565b9050919050565b6000602082019050818103600083015261305681612aba565b9050919050565b6000602082019050818103600083015261307681612add565b9050919050565b6000602082019050818103600083015261309681612b00565b9050919050565b600060208201905081810360008301526130b681612b46565b9050919050565b600060208201905081810360008301526130d681612baf565b9050919050565b600060208201905081810360008301526130f681612bd2565b9050919050565b60006020820190506131126000830184612bf5565b92915050565b6000613122613133565b905061312e82826133c3565b919050565b6000604051905090565b600067ffffffffffffffff821115613158576131576134fb565b5b6131618261352a565b9050602081019050919050565b60008190508160005260206000209050919050565b600081519050919050565b600081519050919050565b600082825260208201905092915050565b600082825260208201905092915050565b600081905092915050565b60006131d182613345565b91506131dc83613345565b9250827fffffffffffffffffffffffffffffffffffffffffffffffffffffffffffffffff038211156132115761321061346e565b5b828201905092915050565b600061322782613345565b915061323283613345565b9250826132425761324161349d565b5b828204905092915050565b600061325882613345565b915061326383613345565b9250817fffffffffffffffffffffffffffffffffffffffffffffffffffffffffffffffff048311821515161561329c5761329b61346e565b5b828202905092915050565b60006132b282613345565b91506132bd83613345565b9250828210156132d0576132cf61346e565b5b828203905092915050565b60006132e682613325565b9050919050565b60008115159050919050565b60007fffffffff0000000000000000000000000000000000000000000000000000000082169050919050565b600073ffffffffffffffffffffffffffffffffffffffff82169050919050565b6000819050919050565b82818337600083830152505050565b60005b8381101561337c578082015181840152602081019050613361565b8381111561338b576000848401525b50505050565b600060028204905060018216806133a957607f821691505b602082108114156133bd576133bc6134cc565b5b50919050565b6133cc8261352a565b810181811067ffffffffffffffff821117156133eb576133ea6134fb565b5b80604052505050565b60006133ff82613345565b91507fffffffffffffffffffffffffffffffffffffffffffffffffffffffffffffffff8214156134325761343161346e565b5b600182019050919050565b600061344882613345565b915061345383613345565b9250826134635761346261349d565b5b828206905092915050565b7f4e487b7100000000000000000000000000000000000000000000000000000000600052601160045260246000fd5b7f4e487b7100000000000000000000000000000000000000000000000000000000600052601260045260246000fd5b7f4e487b7100000000000000000000000000000000000000000000000000000000600052602260045260246000fd5b7f4e487b7100000000000000000000000000000000000000000000000000000000600052604160045260246000fd5b6000601f19601f8301169050919050565b7f4552433732313a207472616e7366657220746f206e6f6e20455243373231526560008201527f63656976657220696d706c656d656e7465720000000000000000000000000000602082015250565b7f4552433732313a20746f6b656e20616c7265616479206d696e74656400000000600082015250565b7f54484952445f574f524400000000000000000000000000000000000000000000600082015250565b7f4552433732313a207472616e7366657220746f20746865207a65726f2061646460008201527f7265737300000000000000000000000000000000000000000000000000000000602082015250565b7f4552433732313a20617070726f766520746f2063616c6c657200000000000000600082015250565b7f222c20226465736372697074696f6e223a20224120686967686c79206163636c60008201527f61696d656420636f6c6c656374696f6e206f6620737175617265732e222c202260208201527f696d616765223a2022646174613a696d6167652f7376672b786d6c3b6261736560408201527f36342c0000000000000000000000000000000000000000000000000000000000606082015250565b7f5345434f4e445f574f5244000000000000000000000000000000000000000000600082015250565b7f4552433732313a206f70657261746f7220717565727920666f72206e6f6e657860008201527f697374656e7420746f6b656e0000000000000000000000000000000000000000602082015250565b7f3c2f746578743e3c2f7376673e00000000000000000000000000000000000000600082015250565b7f4552433732313a20617070726f76652063616c6c6572206973206e6f74206f7760008201527f6e6572206e6f7220617070726f76656420666f7220616c6c0000000000000000602082015250565b7f4552433732313a2062616c616e636520717565727920666f7220746865207a6560008201527f726f206164647265737300000000000000000000000000000000000000000000602082015250565b7f4552433732313a206f776e657220717565727920666f72206e6f6e657869737460008201527f656e7420746f6b656e0000000000000000000000000000000000000000000000602082015250565b7f45524337323155524953746f726167653a2055524920736574206f66206e6f6e60008201527f6578697374656e7420746f6b656e000000000000000000000000000000000000602082015250565b7f227d000000000000000000000000000000000000000000000000000000000000600082015250565b7f4552433732313a206d696e7420746f20746865207a65726f2061646472657373600082015250565b7f45524337323155524953746f726167653a2055524920717565727920666f722060008201527f6e6f6e6578697374656e7420746f6b656e000000000000000000000000000000602082015250565b7f4552433732313a20617070726f76656420717565727920666f72206e6f6e657860008201527f697374656e7420746f6b656e0000000000000000000000000000000000000000602082015250565b7f4552433732313a207472616e73666572206f6620746f6b656e2074686174206960008201527f73206e6f74206f776e0000000000000000000000000000000000000000000000602082015250565b7f4552433732314d657461646174613a2055524920717565727920666f72206e6f60008201527f6e6578697374656e7420746f6b656e0000000000000000000000000000000000602082015250565b7f7b226e616d65223a202200000000000000000000000000000000000000000000600082015250565b7f4552433732313a20617070726f76616c20746f2063757272656e74206f776e6560008201527f7200000000000000000000000000000000000000000000000000000000000000602082015250565b7f46495253545f574f524400000000000000000000000000000000000000000000600082015250565b7f646174613a6170706c69636174696f6e2f6a736f6e3b6261736536342c000000600082015250565b7f4e6f206d6f7265204c696d697465642065646974696f6e20546f6b656e73207460008201527f6f206d696e742e00000000000000000000000000000000000000000000000000602082015250565b7f4552433732313a207472616e736665722063616c6c6572206973206e6f74206f60008201527f776e6572206e6f7220617070726f766564000000000000000000000000000000602082015250565b613bcb816132db565b8114613bd657600080fd5b50565b613be2816132ed565b8114613bed57600080fd5b50565b613bf9816132f9565b8114613c0457600080fd5b50565b613c1081613345565b8114613c1b57600080fd5b5056fe2d2d2d2d2d2d2d2d2d2d2d2d2d2d2d2d2d2d2d2d2d2d2d2d2d2d2d2d2d2d2d2d2d2d2d2d2d3a4142434445464748494a4b4c4d4e4f505152535455565758595a6162636465666768696a6b6c6d6e6f707172737475767778797a303132333435363738392b2f2d2d2d2d2d2d2d2d2d2d2d2d2d2d2d2d2d2d2d2d2d2d2d2d2d2d2d2d2d2d2d2d2d2d2d2d2d2d204e6577204e465420776974682069643a202573200a2d206d696e74656420746f20616464726573733a202573200a2d20746f6b656e5552493a202573200aa2646970667358221220bcc005c51c3ef26aca14423bf38de424734af477bcbceaaace937359e70f424664736f6c634300080400334c6f6767696e6720576f7264487573746c6572204e465420436f6e7472616374207761676d693c73766720786d6c6e733d27687474703a2f2f7777772e77332e6f72672f323030302f73766727207072657365727665417370656374526174696f3d27784d696e594d696e206d656574272076696577426f783d273020302033353020333530273e3c7374796c653e2e62617365207b2066696c6c3a20236333633b20666f6e742d66616d696c793a2073616e732d73657269663b20666f6e742d73697a653a20313570783b207d3c2f7374796c653e3c726563742077696474683d273130302527206865696768743d2731303025272066696c6c3d27626c61636b27202f3e3c7465787420783d273530252720793d273530252720636c6173733d27626173652720646f6d696e616e742d626173656c696e653d276d6964646c652720746578742d616e63686f723d276d6964646c65273e",
  "linkReferences": {},
  "deployedLinkReferences": {}
}